:1000000012C02CC02BC02AC029C028C027C026C0BF
:1000100025C024C023C022C021C020C01FC01EC0D4
:100020001DC01CC01BC011241FBECFE5D4E0DEBF25
:10003000CDBF10E0A0E6B0E0EAE7F2E002C0059034
:100040000D92AA36B107D9F710E0AAE6B0E001C0D8
:100050001D92A037B107E1F756D00DC1D1CF0F9354
:100060001F93DF93CF930F92CDB7DEB7682F853004
:1000700018F400E010E00CC08BE690E061E00CC0EA
:10008000C80184599F4F6983B9D00F5F1F4F6981A1
:100090000617B0F38CE690E0D4D00F90CF91DF91AB
:1000A0001F910F9108950F931F93CF93DF93182FF4
:1000B000853018F08BE690E00FC08CE690E0612F61
:1000C000CDD0CCE6D0E000E003C089917ED00F5FB8
:1000D0000117D8F38AE690E061E0B3D0DF91CF91C9
:1000E0001F910F91089581E080936A0010926B0038
:1000F00087E087BB88B3887F88BB9AD080E690E092
:1001000069E09FD00895EFDF8CE690E061E0A6D033
:1001100080916C00982F907F903299F0913228F462
:10012000992351F0903181F70AC0903591F09036C3
:10013000A9F0903349F707C08CE690E007C013D0D0
:1001400003C01AD001C031D08AE690E061E079D0D6
:10015000DBCF90E08F709070A6DFD6CF90E08F70ED
:1001600090707DDFD1CF90E08F709070009711F08C
:10017000C29A0895C2980895B99A24E030E041E007
:10018000942F982321F098B39C7F926002C098B37B
:100190009C7F98BB440F0000C09A00002150304063
:1001A00079F788B38C7F88BB0895B99A8F7007C0A0
:1001B00098B39C7F98BB81500000C09A00008823B0
:1001C000B9F788B38C7F88BB0895B99A28E030E0EE
:1001D00041E0942F982321F098B39C7F926002C055
:1001E00098B39C7F98BB440F0000C09A0000215038
:1001F000304079F788B38C7F88BB0895FC01B998AB
:10020000C19A28E030E081E00000C09A00004081FF
:10021000B19B03C0482B408304C0982F9095942332
:100220009083C098880F2150304071F7C19808958D
:1002300010BC82E289B9599A88E18AB986E880BD02
:100240000895282F392FF90180E005C05D9BFECF6E
:1002500091919CB98F5F8617C8F30895282F392F85
:10026000F90180E005C05F9BFECF9CB191938F5F49
:0A0270008617C8F30895F894FFCF35
:0A027A0041767220426F6172640049
:00000001FF
